{
  "_format": "hh-sol-artifact-1",
  "contractName": "BuyMeACoffee",
  "sourceName": "contracts/BuyMeACoffee.sol",
  "abi": [
    {
      "inputs": [],
      "stateMutability": "nonpayable",
      "type": "constructor"
    },
    {
      "anonymous": false,
      "inputs": [
        {
          "indexed": false,
          "internalType": "uint256",
          "name": "timestamp",
          "type": "uint256"
        },
        {
          "indexed": false,
          "internalType": "string",
          "name": "message",
          "type": "string"
        },
        {
          "indexed": false,
          "internalType": "address",
          "name": "from",
          "type": "address"
        },
        {
          "indexed": false,
          "internalType": "string",
          "name": "name",
          "type": "string"
        }
      ],
      "name": "NewMemo",
      "type": "event"
    },
    {
      "inputs": [
        {
          "internalType": "string",
          "name": "_name",
          "type": "string"
        },
        {
          "internalType": "string",
          "name": "_message",
          "type": "string"
        }
      ],
      "name": "buyCoffee",
      "outputs": [],
      "stateMutability": "payable",
      "type": "function"
    },
    {
      "inputs": [],
      "name": "getMemos",
      "outputs": [
        {
          "components": [
            {
              "internalType": "uint256",
              "name": "timestamp",
              "type": "uint256"
            },
            {
              "internalType": "string",
              "name": "message",
              "type": "string"
            },
            {
              "internalType": "address",
              "name": "from",
              "type": "address"
            },
            {
              "internalType": "string",
              "name": "name",
              "type": "string"
            }
          ],
          "internalType": "struct BuyMeACoffee.Memo[]",
          "name": "",
          "type": "tuple[]"
        }
      ],
      "stateMutability": "view",
      "type": "function"
    },
    {
      "inputs": [],
      "name": "withdrawTips",
      "outputs": [],
      "stateMutability": "nonpayable",
      "type": "function"
    }
  ],
  "bytecode": "0x608060405234801561001057600080fd5b50336000806101000a81548173ffffffffffffffffffffffffffffffffffffffff021916908373ffffffffffffffffffffffffffffffffffffffff160217905550610a88806100606000396000f3fe6080604052600436106100345760003560e01c8063204206e1146100395780633aaa74b214610055578063865c51721461006c575b600080fd5b610053600480360381019061004e9190610558565b610097565b005b34801561006157600080fd5b5061006a61020a565b005b34801561007857600080fd5b5061008161026a565b60405161008e9190610788565b60405180910390f35b600034116100da576040517f08c379a00000000000000000000000000000000000000000000000000000000081526004016100d1906107aa565b60405180910390fd5b600160405180608001604052804281526020018381526020013373ffffffffffffffffffffffffffffffffffffffff16815260200184815250908060018154018082558091505060019003906000526020600020906004020160009091909190915060008201518160000155602082015181600101908051906020019061016292919061044d565b5060408201518160020160006101000a81548173ffffffffffffffffffffffffffffffffffffffff021916908373ffffffffffffffffffffffffffffffffffffffff16021790555060608201518160030190805190602001906101c692919061044d565b5050507f2d2ad5d7cff5c6ced24ddddb75c04c7fdb5ef52df6a1c3293b03790a79e73c89428233856040516101fe94939291906107ca565b60405180910390a15050565b60008054906101000a900473ffffffffffffffffffffffffffffffffffffffff1673ffffffffffffffffffffffffffffffffffffffff166108fc479081150290604051600060405180830381858888f1935050505061026857600080fd5b565b60606001805480602002602001604051908101604052809291908181526020016000905b828210156104445783829060005260206000209060040201604051806080016040529081600082015481526020016001820180546102cb90610957565b80601f01602080910402602001604051908101604052809291908181526020018280546102f790610957565b80156103445780601f1061031957610100808354040283529160200191610344565b820191906000526020600020905b81548152906001019060200180831161032757829003601f168201915b505050505081526020016002820160009054906101000a900473ffffffffffffffffffffffffffffffffffffffff1673ffffffffffffffffffffffffffffffffffffffff1673ffffffffffffffffffffffffffffffffffffffff1681526020016003820180546103b390610957565b80601f01602080910402602001604051908101604052809291908181526020018280546103df90610957565b801561042c5780601f106104015761010080835404028352916020019161042c565b820191906000526020600020905b81548152906001019060200180831161040f57829003601f168201915b5050505050815250508152602001906001019061028e565b50505050905090565b82805461045990610957565b90600052602060002090601f01602090048101928261047b57600085556104c2565b82601f1061049457805160ff19168380011785556104c2565b828001600101855582156104c2579182015b828111156104c15782518255916020019190600101906104a6565b5b5090506104cf91906104d3565b5090565b5b808211156104ec5760008160009055506001016104d4565b5090565b60006105036104fe84610842565b61081d565b90508281526020810184848401111561051b57600080fd5b610526848285610915565b509392505050565b600082601f83011261053f57600080fd5b813561054f8482602086016104f0565b91505092915050565b6000806040838503121561056b57600080fd5b600083013567ffffffffffffffff81111561058557600080fd5b6105918582860161052e565b925050602083013567ffffffffffffffff8111156105ae57600080fd5b6105ba8582860161052e565b9150509250929050565b60006105d08383610700565b905092915050565b6105e1816108d9565b82525050565b6105f0816108d9565b82525050565b600061060182610883565b61060b81856108a6565b93508360208202850161061d85610873565b8060005b85811015610659578484038952815161063a85826105c4565b945061064583610899565b925060208a01995050600181019050610621565b50829750879550505050505092915050565b60006106768261088e565b61068081856108b7565b9350610690818560208601610924565b61069981610a18565b840191505092915050565b60006106af8261088e565b6106b981856108c8565b93506106c9818560208601610924565b6106d281610a18565b840191505092915050565b60006106ea601c836108c8565b91506106f582610a29565b602082019050919050565b6000608083016000830151610718600086018261076a565b5060208301518482036020860152610730828261066b565b915050604083015161074560408601826105d8565b506060830151848203606086015261075d828261066b565b9150508091505092915050565b6107738161090b565b82525050565b6107828161090b565b82525050565b600060208201905081810360008301526107a281846105f6565b905092915050565b600060208201905081810360008301526107c3816106dd565b9050919050565b60006080820190506107df6000830187610779565b81810360208301526107f181866106a4565b905061080060408301856105e7565b818103606083015261081281846106a4565b905095945050505050565b6000610827610838565b90506108338282610989565b919050565b6000604051905090565b600067ffffffffffffffff82111561085d5761085c6109e9565b5b61086682610a18565b9050602081019050919050565b6000819050602082019050919050565b600081519050919050565b600081519050919050565b6000602082019050919050565b600082825260208201905092915050565b600082825260208201905092915050565b600082825260208201905092915050565b60006108e4826108eb565b9050919050565b600073ffffffffffffffffffffffffffffffffffffffff82169050919050565b6000819050919050565b82818337600083830152505050565b60005b83811015610942578082015181840152602081019050610927565b83811115610951576000848401525b50505050565b6000600282049050600182168061096f57607f821691505b60208210811415610983576109826109ba565b5b50919050565b61099282610a18565b810181811067ffffffffffffffff821117156109b1576109b06109e9565b5b80604052505050565b7f4e487b7100000000000000000000000000000000000000000000000000000000600052602260045260246000fd5b7f4e487b7100000000000000000000000000000000000000000000000000000000600052604160045260246000fd5b6000601f19601f8301169050919050565b7f63616e742062757920636f666665652077697468206e6f7468696e670000000060008201525056fea26469706673582212209aa3934cdbecd980316518c6d09933868c53415d5fe3ff6a4a7ddfe27dab55e164736f6c63430008040033",
  "linkReferences": {},
  "deployedLinkReferences": {}
}